:1000000000000020F5040000394500003F450000D5
:10001000454500004B450000514500000000000030
:100020000000000000000000000000006505000066
:1000300057450000000000000B0600006B060000A2
:10004000293D0000373D0000453D0000533D0000C4
:10005000613D00006F3D00007D3D00008B3D0000D4
:10006000993D0000A73D0000B53D0000C33D0000E4
:10007000D13D0000DF3D0000ED3D0000FB3D0000F4
:10008000093E00005D450000634500006945000031
:100090006F450000754500007B450000814500006C
:1000A000874500008D4500009345000099450000FC
:1000B0009F450000A5450000AB450000173E00002D
:1000C000B1450000253E0000B7450000333E00006A
:1000D000BD450000413E0000C3450000C945000089
:1000E000CF450000D5450000DB450000E14500009C
:1000F000E7450000ED450000F3450000F94500002C
:1001000005050000050500000505000005050000C7
:10011000FF450000054600000B46000011460000A8
:10012000174600001D460000234600002946000037
:100130002F460000354600003B46000041460000C7
:10014000474600004D4600004F3E00005346000069
:100150005D3E0000594600005F4600006546000015
:100160006B46000071460000774600007D460000A7
:1001700083460000894600008F4600009546000037
:100180009B46000005050000050500000505000070
:100190000505000005050000050500000505000037
:1001A0000505000005050000050500000505000027
:1001B0000505000005050000050500000505000017
:1001C0000505000005050000050500000505000007
:1003F000050500000505000005050000FFFFFFFFE3
:10040000FFFFFFFFFFFFFFFFFFFFFFFFFEFFFFFFFD
:1004400010B5054C237833B9044B13B10448AFF30E
:1004500000800123237010BD7810002000000000F0
:10046000C0FD000008B5034B1BB103490348AFF3BF
:10047000008008BD000000007C100020C0FD0000CE
:10048000154B002B08BF134B9D46A3F5803A002166
:100490008B460F461348144A121A0CF031F80F4BD2
:1004A000002B00D098470E4B002B00D0984700201F
:1004B000002104000D000D48002802D00C480BF06C
:1004C000FDFC0BF045FD2000290003F009FC0BF0BA
:1004D00001FD00BF00000800000000200000000037
:1004E000593600007810002000490020BDBE0000F1
:1004F000F5BE000072B607F09DF907F035F962B657
:10050000FFF7BEFFFFF7FEBF80F309887047EFF3E8
:1005100009807047684680F309885A480078C00708
:1005200014BF0220032080F314887047DFF858C1FD
:10053000EFF305831B0618BF6047EFF31483DB0757
:1005400008BF604700DF7047DFF840C1EFF3058365
:100550001B0618BF6047EFF31483DB0708BF604733
:1005600000DF7047EFF30980816911F8021CE1BBDD
:1005700090E80F1010B5E047BDE81040EFF3098C8C
:100580008CE80700424B93E80600914208BF704791
:1005900041B91EF0100F16D13E49086820F0010045
:1005A000086010E01EF0100F06BF2CED108A01202D
:1005B000002081F825002CE9F00FC1F828C00CB408
:1005C00008F090FD0CBC1A60D2F828C0BCE8F00F0F
:1005D00092F8250000280EBF6FF0020E6FF0120E89
:1005E000BCEC108A8CF30988704710B52A4A12684F
:1005F000914209D8294C54F8214090E80F10A047A7
:10060000EFF3098C8CE80F0010BD10B508F0EEFC7C
:10061000BDE810401E4B93E80600914208BF7047AA
:10062000EFF3098C1EF0100F06BF2CED108A01208D
:10063000002081F825002CE9F00FC1F828C00CB487
:1006400008F050FD0CBC1A60D2F828C0BCE8F00FCE
:1006500092F8250000280EBF6FF0020E6FF0120E08
:10066000BCEC108A8CF30988704710B508F01CFDAB
:10067000FFF7CEBF10B508F015FD08F015FDFFF728
:10068000C7BF000060EB0000718900008D89000089
:100690009C48002034EF00E000000000FCFFFFFF5A
:1006A00081F0004102E000BF83F0004330B54FEA23
:1006B00041044FEA430594EA050F08BF90EA020F90
:1006C0001FBF54EA000C55EA020C7FEA645C7FEA23
:1006D000655C00F0E2804FEA5454D4EB5555B8BF46
:1006E0006D420CDD2C4480EA020281EA030382EAB7
:1006F000000083EA010180EA020281EA0303362D49
:1007000088BF30BD11F0004F4FEA01314FF4801C1B
:100710004CEA113102D0404261EB410113F0004F2D
:100720004FEA03334CEA133302D0524263EB4303E4
:1007300094EA050F00F0A780A4F10104D5F1200E82
:100740000DDB02FA0EFC22FA05F2801841F10001DD
:1007500003FA0EF2801843FA05F359410EE0A5F1B1
:1007600020050EF1200E012A03FA0EFC28BF4CF0E2
:10077000020C43FA05F3C01851EBE37101F0004598
:1007800007D54FF0000EDCF1000C7EEB00006EEBA5
:100790000101B1F5801F1BD3B1F5001F0CD349082F
:1007A0005FEA30004FEA3C0C04F101044FEA445286
:1007B00012F5800F80F09A80BCF1004F08BF5FEA0D
:1007C000500C50F1000041EB045141EA050130BDED
:1007D0005FEA4C0C404141EB010111F4801FA4F190
:1007E0000104E9D191F0000F04BF01460020B1FAE5
:1007F00081F308BF2033A3F10B03B3F120020CDA1D
:100800000C3208DD02F1140CC2F10C0201FA0CF0FA
:1008100021FA02F10CE002F11402D8BFC2F1200C5F
:1008200001FA02F120FA0CFCDCBF41EA0C01904015
:10083000E41AA2BF01EB0451294330BD6FEA04045E
:100840001F3C1CDA0C340EDC04F11404C4F1200249
:1008500020FA04F001FA02F340EA030021FA04F35B
:1008600045EA030130BDC4F10C04C4F1200220FAB2
:1008700002F001FA04F340EA0300294630BD21FAF0
:1008800004F0294630BD94F0000F83F4801306BFB6
:1008900081F480110134013D4EE77FEA645C18BFAA
:1008A0007FEA655C29D094EA050F08BF90EA020F41
:1008B00005D054EA000C04BF1946104630BD91EA39
:1008C000030F1EBF0021002030BD5FEA545C05D13C
:1008D0004000494128BF41F0004130BD14F580047B
:1008E0003CBF01F5801130BD01F0004545F0FE41EF
:1008F00041F470014FF0000030BD7FEA645C1ABF24
:10090000194610467FEA655C1CBF0B46024650EA5A
:10091000013406BF52EA033591EA030F41F4002186
:1009200030BD00BF90F0000F04BF0021704730B50C
:100930004FF4806404F132044FF000054FF00001E1
:1009400050E700BF90F0000F04BF0021704730B5A2
:100950004FF4806404F1320410F0004548BF404277
:100960004FF000013EE700BF42004FEAE2014FEACC
:1009700031014FEA02701FBF12F07F4393F07F4FA7
:1009800081F06051704732F07F4208BF704793F0AA
:100990007F4F04BF41F40021704730B54FF46074BD
:1009A00001F0004521F000411CE700BF50EA0102C0
:1009B00008BF704730B54FF000050AE050EA010269
:1009C00008BF704730B511F0004502D5404261EBD9
:1009D00041014FF4806404F132045FEA915C3FF41A
:1009E000D8AE4FF003025FEADC0C18BF03325FEAB7
:1009F000DC0C18BF033202EBDC02C2F1200300FA68
:100A000003FC20FA02F001FA03FE40EA0E0021FA8C
:100A100002F11444BDE600BF70B54FF0FF0C4CF47A
:100A2000E06C1CEA11541DBF1CEA135594EA0C0F2C
:100A300095EA0C0F00F0DEF82C4481EA030621EA67
:100A40004C5123EA4C5350EA013518BF52EA0335A2
:100A500041F4801143F4801338D0A0FB02CE4FF054
:100A60000005E1FB02E506F00042E0FB03E54FF084
:100A70000006E1FB03569CF0000F18BF4EF0010E7C
:100A8000A4F1FF04B6F5007F64F5407404D25FEA78
:100A90004E0E6D4146EB060642EAC62141EA55512B
:100AA0004FEAC52040EA5E504FEACE2EB4F1FD0C6D
:100AB00088BFBCF5E06F1ED8BEF1004F08BF5FEAEB
:100AC000500E50F1000041EB045170BD06F000469D
:100AD00046EA010140EA020081EA0301B4EB5C044A
:100AE000C2BFD4EB0C0541EA045170BD41F4801142
:100AF0004FF0000E013C00F3AB8014F1360FDEBF67
:100B0000002001F0004170BDC4F10004203C35DA42
:100B10000C341BDC04F11404C4F1200500FA05F3C5
:100B200020FA04F001FA05F240EA020001F0004266
:100B300021F0004110EBD37021FA04F642EB0601DC
:100B40005EEA430E08BF20EAD37070BDC4F10C0406
:100B5000C4F1200500FA04F320FA05F001FA04F2CA
:100B600040EA020001F0004110EBD37041F10001B6
:100B70005EEA430E08BF20EAD37070BDC4F12005C1
:100B800000FA05F24EEA020E20FA04F301FA05F229
:100B900043EA020321FA04F001F0004121FA04F2D1
:100BA00020EA020000EBD3705EEA430E08BF20EAA1
:100BB000D37070BD94F0000F0FD101F000464000DB
:100BC00041EB010111F4801F08BF013CF7D041EA5D
:100BD000060195F0000F18BF704703F00046520061
:100BE00043EB030313F4801F08BF013DF7D043EA32
:100BF0000603704794EA0C0F0CEA135518BF95EAE8
:100C00000C0F0CD050EA410618BF52EA4306D1D16E
:100C100081EA030101F000414FF0000070BD50EA8D
:100C2000410606BF1046194652EA430619D094EA17
:100C30000C0F02D150EA013613D195EA0C0F05D101
:100C400052EA03361CBF104619460AD181EA030155
:100C500001F0004141F0FE4141F470014FF000000D
:100C600070BD41F0FE4141F4780170BD70B54FF0A8
:100C7000FF0C4CF4E06C1CEA11541DBF1CEA135528
:100C800094EA0C0F95EA0C0F00F0A7F8A4EB05040A
:100C900081EA030E52EA03354FEA013100F0888001
:100CA0004FEA03334FF0805545EA131343EA1263CA
:100CB0004FEA022245EA111545EA10654FEA00267F
:100CC0000EF000419D4208BF964244F1FD0404F538
:100CD000407402D25B084FEA3202B61A65EB030594
:100CE0005B084FEA32024FF480104FF4002CB6EB51
:100CF000020E75EB030E22BFB61A754640EA0C00D1
:100D00005B084FEA3202B6EB020E75EB030E22BF10
:100D1000B61A754640EA5C005B084FEA3202B6EB51
:100D2000020E75EB030E22BFB61A754640EA9C0010
:100D30005B084FEA3202B6EB020E75EB030E22BFE0
:100D4000B61A754640EADC0055EA060E18D04FEA9E
:100D5000051545EA16754FEA06164FEAC30343EA3E
:100D600052734FEAC2025FEA1C1CC0D111F4801F0B
:100D70000BD141EA00014FF000004FF0004CB6E704
:100D800011F4801F04BF01430020B4F1FD0C88BFA3
:100D9000BCF5E06F3FF6AFAEB5EB030C04BFB6EBAE
:100DA000020C5FEA500C50F1000041EB045170BDA1
:100DB0000EF0004E4EEA113114EB5C04C2BFD4EBCE
:100DC0000C0541EA045170BD41F480114FF0000E52
:100DD000013C90E645EA060E8DE60CEA135594EACE
:100DE0000C0F08BF95EA0C0F3FF43BAF94EA0C0FD1
:100DF0000AD150EA01347FF434AF95EA0C0F7FF446
:100E000025AF104619462CE795EA0C0F06D152EA99
:100E100003353FF4FDAE1046194622E750EA41067D
:100E200018BF52EA43067FF4C5AE50EA41047FF48E
:100E30000DAF52EA43057FF4EBAE12E74FF0FF3CF3
:100E400006E000BF4FF0010C02E000BF4FF0010CC4
:100E50004DF804CD4FEA410C7FEA6C5C4FEA430C3D
:100E600018BF7FEA6C5C1BD001B050EA410C0CBF8C
:100E700052EA430C91EA030F02BF90EA020F0020EE
:100E8000704710F1000F91EA030F58BF994208BF55
:100E900090422CBFD8176FEAE37040F00100704712
:100EA0004FEA410C7FEA6C5C02D150EA013C07D169
:100EB0004FEA430C7FEA6C5CD6D152EA033CD3D0B4
:100EC0005DF8040B704700BF8446104662468C46AE
:100ED0001946634600E000BF01B5FFF7B7FF0028E1
:100EE00048BF10F1000F01BD4DF808EDFFF7F4FF0A
:100EF0000CBF012000205DF808FB00BF4DF808ED95
:100F0000FFF7EAFF34BF012000205DF808FB00BFB7
:100F10004DF808EDFFF7E0FF94BF012000205DF8D9
:100F200008FB00BF4DF808EDFFF7CEFF94BF01208E
:100F300000205DF808FB00BF4DF808EDFFF7C4FF87
:100F400034BF012000205DF808FB00BF4FEA4102DA
:100F500012F5001215D211D56FF47873B3EB62520B
:100F600012D94FEAC12343F0004343EA505311F032
:100F7000004F23FA02F018BF404270474FF00000C4
:100F8000704750EA013005D111F0004008BF6FF002
:100F9000004070474FF00000704700BF4A0011D278
:100FA00012F5001211D20DD56FF47873B3EB6252C3
:100FB0000ED44FEAC12343F0004343EA505323FACF
:100FC00002F070474FF00000704750EA013002D144
:100FD0004FF0FF3070474FF00000704753B94AB9E7
:100FE000002908BF00281CBF4FF0FF314FF0FF3031
:100FF00001F0F8B8ADF1080C6DE904CE00F006F888
:10100000DDF804E0DDE9022304B070472DE9F04784
:10101000089E04468846002B4BD18A42154667D964
:10102000B2FA82F24AB1C2F1200701FA02F320FAC1
:1010300007F7954047EA030894404FEA154E230C02
:10104000B8FBFEF71FFA85FC0EFB178843EA08433E
:1010500007FB0CF1994209D9EB1807F1FF3080F03A
:101060001B81994240F21881023F2B445B1AA4B2C3
:10107000B3FBFEF00EFB103344EA034400FB0CFC10
:10108000A44509D92C1900F1FF3380F00781A4454C
:1010900040F2048102382C4440EA0740A4EB0C04DF
:1010A00000271EB1D4400023C6E900433946BDE8FD
:1010B000F0878B4209D9002E00F0EB800027C6E9AB
:1010C000000138463946BDE8F087B3FA83F7002FB0
:1010D00047D18B4202D3824200F2FA80841A61EB3C
:1010E000030301209846002EE0D0C6E90048DDE762
:1010F00002B9FFDEB2FA82F2002A40F08F80491B6B
:101100004FEA154E1FFA85F80127B1FBFEFC230CB0
:101110000EFB1C1143EA014308FB0CF1994207D96D
:10112000EB180CF1FF3002D2994200F2CD808446D8
:10113000591AA3B2B1FBFEF00EFB101443EA0444AB
:1011400008FB00F8A04507D92C1900F1FF3302D2A3
:10115000A04500F2B6801846A4EB080440EA0C4013
:101160009FE7C7F1200CBB4022FA0CFE4EEA030EAB
:1011700001FA07F420FA0CF521FA0CF34FEA1E48A5
:101180002543B3FBF8F92C0C08FB19331FFA8EFA30
:1011900044EA034309FB0AF49C4202FA07F200FA0C
:1011A00007F10BD91EEB030309F1FF3080F08780B4
:1011B0009C4240F28480A9F1020973441B1BADB22A
:1011C000B3FBF8F008FB103345EA034400FB0AFACE
:1011D000A24508D91EEB040400F1FF336BD2A245EF
:1011E00069D90238744440EA0940A0FB0289A4EBA3
:1011F0000A044C45C2464B4654D351D0002E69D008
:10120000B1EB0A0564EB030404FA0CFCFD40FC405E
:101210004CEA0505C6E90054002747E7C2F1200360
:1012200020FA03F7954001FA02F021FA03F34FEA9E
:10123000154E3843010CB3FBFEF71FFA85F80EFB81
:10124000173341EA034107FB08F38B4204FA02F427
:1012500007D9691807F1FF3C2FD28B422DD9023FE5
:101260002944CB1A81B2B3FBFEF00EFB103341EAE6
:10127000034100FB08F38B4207D9691800F1FF3CDA
:1012800017D28B4215D902382944C91A40EA0747B8
:101290003BE73746304609E70746E7E61846FBE6F0
:1012A0004145ABD2B8EB020A69EB0E020138134696
:1012B000A4E76046E9E7184695E76746D1E7814627
:1012C0007CE702382C4447E7ACF1020C2B442FE7B3
:1012D000384608E73746E9E603685A004CBF43F052
:1012E000004323F000431844704700BF61B32DE969
:1012F000F84F01F1FF3A90460646D146002707EB2A
:10130000090404EBD4746410E50071190846FFF772
:10131000E3FFA245834605F10800304409D0FFF7FA
:10132000DBFFC34500F1FF3005D8404509D2671CFB
:10133000E5E7C34505D9A74202D004F1FF39DEE74E
:1013400000210846BDE8F88F08467047012807D0FD
:10135000022807D0044B00280CBF18460020704715
:101360000248704702487047391A00003D1A0000D1
:10137000411A000030B5254B83B004468D1E4BB397
:1013800001A92846AFF30080F0B101992A46FFF782
:10139000ADFF0146C0B1FFF79FFF4B68A064012B72
:1013A0002ED0002B01F1040026DBFFF795FF002370
:1013B000C4E913030368002B12DBFFF78DFF002342
:1013C0002061184603B030BD00232361092318466D
:1013D00003B030BD0E490F48091AC9100191D5E775
:1013E000C3F30360FFF7B2FF002814BF00230923F3
:1013F0002061184603B030BD0123C4E91303D9E7C7
:10140000002323610523184603B030BD000000000F
:1014100028060100F80101000368DA0710B5044648
:1014200006D49B0700F1480009D500F05FFC236853
:10143000590709D51A070ED5DB0613D510BD00F0E4
:101440004DFC23685907F5D404F1D00000F056FC98
:1014500023681A07F0D404F5A87000F057FC23683D
:10146000DB06EBD404F5E870BDE8104000F092BC58
:10147000036803B103441846704700BF0920704752
:10148000704700BF70B504460D4608E02B6C6361E1
:101490002A462369214601209847082808D1296C4B
:1014A0002046FFF767FF06460028EFD00AF0E0FC71
:1014B0000728FBD13046296CFFF7E2FF281D00F01A
:1014C00001FC00BF2DE9F0470C1D054617460FCC67
:1014D000ADF5727D03AE0FC60FCC0FC60FCC0FC695
:1014E00094E80F0002ACD5F80C80D5F8189086E887
:1014F0000F000023236021E0236C6B614FF4F07236
:1015000021467AA800F070FE2B697AAA2946304657
:101510009847889BCDE900498246636431462B4653
:101520002A460120C0470746F8B94FF4F0727AA95D
:10153000204600F059FEBAF1080F1CD1216C284654
:10154000FFF718FF002F08BF0926074618BF0A2615
:101550000028D1D0A36B46F01001CDE900492A46FE
:10156000636401202B46C04700B1092738460DF5BA
:10157000727DBDE8F087BAF1070FF6D13846216CCD
:10158000FFF77EFF03A800F09DFB00BF406C704793
:10159000F0B5CB6B0B640D1D0F4606460FCDF9B0B1
:1015A00001AC0FC40FCD0FC40FCD0FC495E80F00D1
:1015B0004FF0FF3584E80F00009506E033696A4676
:1015C000314698470828044608D110993046FFF75D
:1015D000D1FE0028F2D0092079B0F0BD6846FFF7AF
:1015E0001BFF062CF7D139463046FFF74BFF00BFF3
:1015F00030B4DD6BC160826119461D64002230BCCD
:1016000060E700BF70B5C66843690B64BEB9036983
:101610000A4604460D46014602209847072807D08F
:10162000082803D129462046FFF72CFF0AF020FCAA
:101630003046296CFFF724FF281D00F043FB0122F0
:10164000FFF740FF0AF014FCC2681AB1CA6B0A64C3
:10165000002237E79CE700BF704700BF836813B1E3
:101660000146012018477047042907D8DFE801F038
:101670000308060808000BB90F2A03D90220704797
:101680000120704700EB820218465368009A1360ED
:10169000704700BF10B584B0002303AC0A46009425
:1016A0001946FFF7E1FF039804B010BD042907D8DD
:1016B000DFE801F00308060808000BB90F2A03D978
:1016C000022070470120704700EB8200009A1268E8
:1016D00042601846704700BF10B584B004AC0023C8
:1016E00044F8042D0A4600941946FFF7DFFF04B0C2
:1016F00010BD00BFF0B5D36B1364151D07460E4631
:101700000FCDADF50F7D17AC0FC40FCD0FC40FCDAE
:101710000FC495E80F004FF0FF3584E80F001695D1
:1017200010E016A8FFF7D8FF314616A8B84716AA4A
:10173000694678B9049B08209847052804460AD0D2
:10174000092807D026996846FFF714FE6A460C213F
:101750000028E6D0092416A8FFF75EFE20460DF506
:101760000F7DF0BD2DE9F04F0D46C96C89B00C1D01
:10177000164600F0030B0A6806941F46002B68D03B
:10178000130CD9B212048DF81D30022304EB81042E
:1017900005928DF81C302B6DBBF1020F08BFAC6BAE
:1017A00013F0010346D1019300F008030093D4F82D
:1017B0000090B9F1000F00F0F380022F45D0B4F88B
:1017C0000090B4F802800434AB6C28F0010A0F21B9
:1017D00030469A44FFF75EFF824534D829F0010372
:1017E0005344834294BF002001204FEA480808F088
:1017F000020809F0010948EA0908B8F1010F3AD0D6
:1018000031D3B8F1020F1AD1236823F0004ABBF19B
:10181000000F66D130B1009A002A6CD0BAF1000FE7
:1018200000F09080002B00DA04340AF1010304EB8D
:101830008304BCE7304605A900F046FB78B10920D7
:1018400009B0BDE8F08F0020CFE7D4F80480083459
:10185000BAE7120203230592ADF81C309BE708207B
:1018600009B0BDE8F08FBBF1000F02D0002840F0B6
:10187000B48004349BE7BBF1000F18D1A8B1D4E9C0
:101880000023991C4FEAD272D9D005F158010133D7
:10189000049100F0B580201DFFF7EAFD04AB01467E
:1018A0002846AFF30080002867D108347FE70D2178
:1018B0003046D5F82080FFF7EDFE8045F5D1AB6AC4
:1018C0009C42F2D12046FFF707FD0F210246304629
:1018D000FFF702FF30462A460021FFF7FDFE0720F2
:1018E000AEE70D213046D5F82080FFF7D3FE8045C6
:1018F00032D0236896E7BAF1000F23D005F15803E0
:1019000004F10408CDF808B0DDF800900397A34671
:101910001C4602E05745B94640D040460494FFF7C4
:10192000A7FD04AB014600222846AFF3008009F171
:10193000010708F104080028ECD0D1455C46DDE938
:1019400002B7D6D130460D21FFF7A4FE049B2862D2
:10195000C5E90934062073E7AB6A9C42C9D1042269
:101960004FF00008A318C5E90AA8C5E90C232368AD
:1019700043454DDB0123019357E780460D21304657
:10198000FFF788FEB8F1020F28623ED12B46049A79
:1019900043F82C2F6B62AC62062051E75C46D1E71E
:1019A00005A9304600F090FA00287FF448AF019B6B
:1019B000002B3FF454AF0F213046FFF76BFE0E2192
:1019C00002463046FFF788FE30461A4A0F21FFF7DD
:1019D00083FE072009B0BDE8F08F2046FFF77CFCAE
:1019E00004340746AC632846AFF3008000283FF478
:1019F00026AF30463A460F21FFF76EFE07201FE75D
:101A000030460D21FFF746FE2862049B6B62C2E759
:101A10000AF1010004EB8000FFF75EFC0F21024693
:101A20003046FFF759FE30462A464146FFF754FE3E
:101A3000072005E700000000002393E6012391E65C
:101A400002238FE62DE9F0410546C4B0042906D8EB
:101A5000DFE801F04D2B05030900032B5FD00220C6
:101A600044B0BDE8F081002BF9D1102AF7D82B68DB
:101A7000DC0600F1F48022AC2046019200F094F9DB
:101A8000A86B019A0023012606FA03F1114203D044
:101A9000016844F8231004300133042BF4D1A86307
:101AA000204600F077F90020DAE7012B4FEA1246D2
:101AB00097B252D0052BD2D106EB0708B8F1200F10
:101AC000CDD80F2E40F29980B846002F40F0DB8031
:101AD000AA6BAA630F2E40F2BE80B8F1000F02D0AD
:101AE00002A800F00BF9002044B0BDE8F081002B03
:101AF000B5D1AC6B97B2281D012606FA03F1394225
:101B000003F1010302D0216801600434102B00F1BD
:101B10000400F2D112F40050E5D1AC63A0E7160C3A
:101B200097B2F319102B9AD82B681A075DD422AC00
:101B3000204600F00DF904EBC601AB6B3FB103EB9F
:101B4000C702186841F8040B04339342F9D12046C8
:101B5000AB6300F0DBF8002082E7F219102A3FF6B1
:101B60007EAF0F2E3FF67BAF2A68D10708D52846F7
:101B700022F0030240F8482B019300F0B3F8019BD8
:101B8000019322AC204600F0ADF8A96B019B002F19
:101B900000F095807F0004EBC6044FF00008043C81
:101BA00001EB870251F8040B44F8040F9142F9D17C
:101BB000B8F1000F0FD002AC102E314638BF102103
:101BC00004EBC101843902EBC80452F8040B41F85C
:101BD000040F9442F9D1012B7FF47BAF22AC043285
:101BE000AA63204600F07AF87DE723F008032B6013
:101BF00005F5A87000F0ACF899E7B8F1100F2A6865
:101C000043D9D007A8F110080BD5284622F00102CD
:101C100042F0020240F8482B019300F06BF82A686A
:101C2000019B510725D40F2E04D822A8019300F060
:101C300061F8019B019302AC204600F063F8C6F105
:101C400010010029AA6B019BB6DD22AC4F0004EB0A
:101C5000C6041146A3E722A800F048F83DE723F0A8
:101C600010032B6005F5E870019200F09DF8019AD1
:101C700001E7284622F0040240F8D02B019300F03F
:101C800041F8019BCFE72A68CBE7D0070AD5284661
:101C900022F0010242F0020240F8482B019300F0CA
:101CA00029F8019B019322AC204600F023F8B846A6
:101CB000A96B019B002F7FF46DAF0A4609E70A4626
:101CC0008DE700BF00F1340191E838009C46A6463C
:101CD0004CF8045D90E8FF0FE54600BD90EC210B49
:101CE000704700BF80EC210B704700BF90EC200BC9
:101CF000704700BF80EC200B704700BFD0EC200B7A
:101D0000704700BFC0EC200B704700BFF0EC020131
:101D1000F0EC0211F0EC0221F0EC0231F0EC0241A7
:101D2000F0EC0251F0EC0261F0EC0271F0EC028197
:101D3000F0EC0291F0EC02A1F0EC02B1F0EC02C187
:101D4000F0EC02D1F0EC02E1F0EC02F1704700BFE0
:101D5000E0EC0201E0EC0211E0EC0221E0EC0231E7
:101D6000E0EC0241E0EC0251E0EC0261E0EC0271D7
:101D7000E0EC0281E0EC0291E0EC02A1E0EC02B1C7
:101D8000E0EC02C1E0EC02D1E0EC02E1E0EC02F1B7
:101D9000704700BFB0FC0181B0FC0191B0FC01A113
:101DA000B0FC01B1704700BFA0FC0181A0FC019113
:101DB000A0FC01A1A0FC01B1704700BFEC4600B53A
:101DC0002DE900502DE9FF1F4FF000032DE90C0015
:101DD00001A9FFF7DDFBDDF840E012B0704700BF5E
:101DE000EC4600B52DE900502DE9FF1F4FF0000330
:101DF0002DE90C0001A9FFF705FCDDF840E012B069
:101E0000704700BFEC4600B52DE900502DE9FF1FDB
:101E10004FF000032DE90C0001A9FFF715FCDDF8D8
:101E200040E012B0704700BFEC4600B52DE900500D
:101E30002DE9FF1F4FF000032DE90C0001ABFFF768
:101E4000D7FBDDF840E012B0704700BFEC4600B5AC
:101E50002DE900502DE9FF1F4FF000032DE90C0084
:101E600001AAFFF747FCDDF840E012B0704700BF61
:101E7000027A82B9437AABB14268013B10B4437233
:101E800013680321141D01721A02446002605DF898
:101E9000044B180E70470368013A02721A0202607E
:101EA000180E7047B020704700B585B003AA002314
:101EB000009219460C22FFF7D7FB039805B05DF896
:101EC00004FB00BFF0E700BF2DE9F043054685B0F5
:101ED0000E464FF000083046FFF7CAFFB028044610
:101EE00000F0B180070620D500F0F003802B65D00C
:101EF000902B36D0A02B78D0B02B47D0C02B00F041
:101F00008A8000F0F803D02B0BD100F007020132D9
:101F100042F40022052301212846FFF793FD002803
:101F2000D9D0092005B0BDE8F0830DF10C090023DC
:101F300019468700CDF800900D222846FFF794FB44
:101F4000FFB2039BCDF80090043760064CBFDF1B47
:101F5000FF18002319460D2228460397FFF7A6FB1A
:101F6000B9E700F00D030D2BDBD003AF002300F029
:101F70000F02194600972846FFF776FB00230097CB
:101F800019460D222846FFF791FBA4E7B1285FD040
:101F9000B22800F0CC80B3287ED000F0FC03B42B34
:101FA000BFD000F007020132012342F4002219469B
:101FB0002846FFF747FD00288DD0B2E73046FFF7EF
:101FC00057FF24020443B4F5004FAAD02401002394
:101FD000A2B219462846FFF735FD0028A1D114F416
:101FE000004F18BF4FF0010875E7C24302F0070326
:101FF0004FF47F621A41010702F47F624FF0000341
:1020000048BF42F4804219462846FFF71BFD0028CE
:102010003FF461AF85E7C62851D0C7285AD000F0F9
:10202000F803C02B69D0C82875D0C9287FF479AFD0
:102030003046FFF71DFF020300F00F0002F470228C
:102040000130024366E7B8F1000F14D0002069E7C1
:102050003046FFF70DFF00283FF463AF10F0F003A8
:102060007FF45FAF024619462846FFF7EBFC0028D5
:102070003FF431AF55E703AC43460E22414600948E
:102080002846FFF7F1FA0094284643460F224146BE
:10209000FFF70CFB404645E73046FFF7E9FE01033A
:1020A00000F00F0001F47021421C01230A4328466E
:1020B0001946FFF7C7FC00283FF40DAF31E7304663
:1020C000FFF7D6FE010300F00F0001F47021421C5F
:1020D0000323EBE73046FFF7CBFE024600283FF430
:1020E00020AF10F0F0037FF41CAF04212846FFF767
:1020F000A9FC00283FF4EFAE13E700F00F02013215
:10210000032342F4202219462846FFF79BFC0028AF
:102110003FF4E1AE05E73046FFF7AAFE00F0F0021B
:1021200000F00F031032013343EA0232F2E60023DB
:102130000DF10C090D221946CDF800902846FFF745
:1021400093FA3046FFF794FE02064FF002070CD5D3
:10215000039B00F07F00B840034430460393FFF731
:1021600087FE030607F10707F2D4039BCDF8009022
:1021700000F07F0403F50172BC40002314441946AB
:102180000D2228460394FFF791FAA4E610B5C36C1C
:1021900084B05A6803208DF80C00DC798DF80D406E
:1021A00012020833084601A901920293FFF78CFE40
:1021B00004B010BD08B5FFF785FE806C08BD00BFF8
:1021C00008B5FFF77FFEC06CC37900EB83000830D1
:1021D00008BD00BF08B509F04BFE00BF08B5FFF70A
:1021E000F9FF00BF704700BF844641EA000313F0C7
:1021F00003036DD1403A41D351F8043B40F8043B0E
:1022000051F8043B40F8043B51F8043B40F8043BD0
:1022100051F8043B40F8043B51F8043B40F8043BC0
:1022200051F8043B40F8043B51F8043B40F8043BB0
:1022300051F8043B40F8043B51F8043B40F8043BA0
:1022400051F8043B40F8043B51F8043B40F8043B90
:1022500051F8043B40F8043B51F8043B40F8043B80
:1022600051F8043B40F8043B51F8043B40F8043B70
:1022700051F8043B40F8043B403ABDD2303211D310
:1022800051F8043B40F8043B51F8043B40F8043B50
:1022900051F8043B40F8043B51F8043B40F8043B40
:1022A000103AEDD20C3205D351F8043B40F8043B10
:1022B000043AF9D2043208D0D2071CBF11F8013B0E
:1022C00000F8013B01D30B8803806046704700BFD4
:1022D000082A13D38B078DD010F003038AD0C3F1E3
:1022E0000403D21ADB071CBF11F8013B00F8013BC5
:1022F00080D331F8023B20F8023B7BE7043AD9D384
:10230000013A11F8013B00F8013BF9D20B78037058
:102310004B7843708B7883706046704700000000F4
:1023200001F0FF01102A2BDB10F0070F08D010F886
:10233000013B013A8B422DD010F0070F42B3F6D18A
:10234000F0B441EA012141EA014122F007047FF0A3
:1023500000070023F0E80256083C85EA010586EAFA
:10236000010685FA47F5A3FA87F586FA47F6A5FA36
:1023700087F68EB9EED1F0BC01F0FF0102F0070242
:1023800032B110F8013B013A83EA010313B1F8D1ED
:102390000020704701387047002D06BF35460338CE
:1023A000073815F0010F07D1013015F4807F02BF07
:1023B000013015F4C03F0130F0BC0138704700BF58
:1023C00090F800F06DE9024520F007016FF0000C75
:1023D00010F0070491F820F040F049804FF000041D
:1023E0006FF00700D1E9002391F840F000F10800F8
:1023F00082FA4CF2A4FA8CF283FA4CF3A2FA8CF330
:102400004BBBD1E9022382FA4CF200F10800A4FA96
:102410008CF283FA4CF3A2FA8CF3E3B9D1E90423EA
:1024200082FA4CF200F10800A4FA8CF283FA4CF321
:10243000A2FA8CF37BB9D1E9062301F1200182FADB
:102440004CF200F10800A4FA8CF283FA4CF3A2FAE1
:102450008CF3002BC6D0002A04BF04301A4612BAEF
:10246000B2FA82F2FDE8024500EBD2007047D1E9F2
:10247000002304F00305C4F100004FEAC50514F081
:10248000040F91F840F00CFA05F562EA05021CBF52
:1024900063EA050362464FF00004A9E780B586B001
:1024A00000AF786026497A6813465B0013449B00AE
:1024B0000B4409331B78002B27D107F1080318467A
:1024C00007F056FC0323FB721D497A6813465B0034
:1024D00013449B000B441B6807F108021146184681
:1024E00007F058FC16497A6813465B0013449B00BA
:1024F0000B44093303221A707A6813465B001344B5
:102500009B000F4A13447B6115E00D497A6813461E
:102510005B0013449B000B4409331B78032B08D149
:102520007A6813465B0013449B00054A13447B61A1
:1025300001E000237B617B6918461837BD4680BDEA
:102540004004002080B485B000AFF8600B467A608C
:10255000FB7200BF1437BD465DF8047B7047000076
:1025600090B58BB000AFF860B9601346FB71FB68A3
:10257000FB61FB69002B3AD0FB691B7A3B7500239A
:10258000BB7500237B75FB691B680121184607F0AA
:1025900049FCFB691868FB695B6807F1140219467E
:1025A00007F060FCFB691A68FB695B681946104616
:1025B00007F074FCFB691A68FB695B6819461046F2
:1025C00007F090FC03467B837B8B07EE903AF8EE96
:1025D000677A17EE900AFEF7C7F90DA3D3E9002337
:1025E000FEF71AFA03460C46C7E9083405E04FF037
:1025F00000034FF00004C7E90834BA68D7E908348B
:10260000C2E9003400BF2C37BD4690BDAFF3008057
:10261000100010001000F03E80B483B000AF78606E
:1026200000BF0C37BD465DF8047B704780B483B0B3
:1026300000AF786000BF0C37BD465DF8047B704783
:1026400080B483B000AF786000BF0C37BD465DF842
:10265000047B704780B584B000AF78600B46FB7098
:102660007B68012B11D80C497B687A6841F82320DC
:102670007B689B00084A1344184601F025FD7B68DF
:102680009B00054A1344FB6001E00023FB60FB68EC
:1026900018461037BD4680BD9810002080B584B024
:1026A00000AF786039607B68002B07D03B68194623
:1026B000786801F025FE0023FB7301E00823FB731B
:1026C000FB7B18461037BD4680BD80B588B002AF91
:1026D000F8607A603B600B467B8100237B6197F852
:1026E0002030002B0CBF01230023DBB23B61FB68D1
:1026F000002B19D07B8959003A683B690093134637
:102700007A68F86801F024FE03467B617B6913F167
:10271000020F01D1012308E07B69B3F1FF3F01D132
:10272000042302E0002300E0082318461837BD46C2
:1027300080BD80B588B002AFF8607A603B600B4620
:102740007B8100237B6197F82030002B0CBF012395
:102750000023DBB23B61FB68002B19D07B89590059
:102760003A683B69009313467A68F86801F060FEA6
:1027700003467B617B6913F1020F01D1012308E05D
:102780007B69B3F1FF3F01D1042302E0002300E0A5
:10279000082318461837BD4680BD80B483B000AF0B
:1027A000786000BF0C37BD465DF8047B70470000C1
:1027B00080B584B000AFF860B9601346FB71BB68A8
:1027C0001F2B05D90D4B0E4AFF210E4809F058FB6F
:1027D000FB68BA6853F8223023F0807323F4E06377
:1027E000FA79120202F4E06243EA0201FB68BA6875
:1027F00043F8221000BF1037BD4680BDBCE8000082
:10280000C4EA0000C8E8000080B483B000AF78607C
:102810000B46FB707B681B6823F01802FB78DB001B
:1028200003F018031A437B681A6000BF0C37BD46DB
:102830005DF8047B7047000090B58FB000AF786101
:1028400087ED020B87ED001B524A7B695B01134445
:1028500011331B78002B40F08780002387F8283045
:10286000002387F82930002387F82A308023FB6271
:10287000484A7B695B0113441868464A7B695B01DF
:10288000134404331968434A7B695B0113441033D2
:102890001B781A46FFF78CFF3E4A7B695B011344A5
:1028A00008331B6807F128021146184607F0F2FDAD
:1028B000384A7B695B01134408331B68DBB2002292
:1028C0000121184607F06AFE324A7B695B01134416
:1028D000113304221A702F4A7B695B01134403F100
:1028E0001802D7E90234C2E9003402233B76002300
:1028F0007B76284A7B695B0113441833D3E90034A3
:1029000018462146FEF74AFB0346FB61D7E9000162
:10291000FEF744FB03463B620023BB841D4A7B69F0
:102920005B01134408331B681B4A52F823303B6396
:102930000021386BFFF768FF164A7B695B0113447F
:1029400008331868134A7B695B0113440C331B6816
:10295000DAB207F11803194607F07EFE7B695B01C6
:102960000C4A13447B630FE00A4A7B695B01134402
:1029700011331B78042B05D17B695B01054A134495
:102980007B6301E000237B637B6B18463C37BD46CD
:1029900090BD00BF80010020FCF4000080B483B033
:1029A00000AF786000BF0C37BD465DF8047B704710
:1029B00090B58BB000AFF86087ED000BFB687B62D1
:1029C0007B6A002B2CD07B6A5B7C042B28D10223F2
:1029D0003B7400237B747B6AD3E906341846214696
:1029E000FEF7DCFA03467B61D7E90001FEF7D6FA71
:1029F0000346BB610023BB837B6A9B680A4A52F88B
:102A000023303B620021386AFFF7FEFE7B6A98683C
:102A10007B6ADB68DAB207F11003194607F01CFE87
:102A200000BF2C37BD4690BDFCF4000080B485B0DB
:102A300000AF78607B68FB60FB68002B06D0FB680A
:102A40005B7C042B02D1FB6800225A7400BF143750
:102A5000BD465DF8047B704780B483B000AF7860FA
:102A600000BF0C37BD465DF8047B704780B584B06D
:102A700000AFF860B9607A60BB680F2B06D90A4BCB
:102A80000A4A40F2E2210A4809F0FAF9FA68BB68FA
:102A90005B01134403F5805310337A681A6000BF5A
:102AA0001037BD4680BD00BF00E90000FCEA000011
:102AB0002CE9000080B584B000AFF860B96013461F
:102AC000FB71BB680F2B06D90C4B0D4A4FF460719C
:102AD0000C4809F0D5F9BB685B0103F58053183346
:102AE000FA681344043303F104735B010433FA7985
:102AF00092B21A8000BF1037BD4680BD00E90000C9
:102B000018EB00002CE9000090B587B000AFF8602A
:102B10007A603B600B46FB7200237B61FB681B689D
:102B2000022B00F04D81032B00F0DF81012B00F020
:102B30009580954B00221A60934B1B68934A52F87C
:102B40002330002B41D1904B1B68914ADB0013448A
:102B500000229A718C4B1B688D4ADB0013440022C3
:102B60001A71894B1B688A4ADB00134400225A7190
:102B7000854B1B68864A4FF4E13142F83310824B93
:102B80001B68184604F0F8FC7F4B1B689B01814AC8
:102B900013448149184607F08FFB7B4B18687A4B2A
:102BA0001A6813461B019B1A9B007C4A9918764BA6
:102BB0001B68DB00764A13441A4608F035FC724B5A
:102BC0001B68724A012142F823107B68B3F1FF3F72
:102BD00020D06D4B1A68724913469B0013449B002A
:102BE0000B4436221A60684B1A686D4913469B00E5
:102BF00013449B000B4408336A4A1A60624B1A68FC
:102C0000674913469B0013449B000B440C33664AF0
:102C10001A6015E05C4B1A68614913469B00134427
:102C20009B000B44043311221A60574B1A685C490D
:102C300013469B0013449B000B4410335B4A1A60FD
:102C4000514B1B68504A1268594941F823204E4B9A
:102C50001B689B00564A13447B61DBE14A4B01220F
:102C60001A60494B1B68494A52F82330002B41D166
:102C7000454B1B68464ADB00134400229A71424BC5
:102C80001B68434ADB00134400221A713E4B1B6849
:102C90003F4ADB00134400225A713B4B1B683C4AFD
:102CA0004FF4E13142F83310374B1B68184604F0FB
:102CB00063FC354B1B689B01364A13443649184662
:102CC00007F0FAFA304B18682F4B1A6813461B01AD
:102CD0009B1A9B00314A99182B4B1B68DB002C4A2E
:102CE00013441A4608F0A0FB274B1B68274A012112
:102CF00042F823107B68B3F1FF3F20D0224B1A68C3
:102D0000274913469B0013449B000B4400221A6082
:102D10001D4B1A68224913469B0013449B000B4429
:102D20000833244A1A60184B1A681D4913469B0041
:102D300013449B000B440C331F4A1A6015E0124BDE
:102D40001A68174913469B0013449B000B44043335
:102D500000221A600C4B1A68114913469B00134459
:102D60009B000B441033154A1A60074B1B68064A38
:102D700012680F4941F82320034B1B689B000C4A43
:102D800013447B6146E100BFEC140020F0140020E6
:102D90000C1400202411002000000020A4120020A8
:102DA00044140020A0100020D81000201011002092
:102DB000D414002010110020101100202411002034
:102DC000AD4B02221A60AC4B1B68AC4A52F8233060
:102DD000002B41D1A84B1B68A94ADB0013440022F9
:102DE0009A71A54B1B68A64ADB00134400221A7196
:102DF000A14B1B68A24ADB00134400225A719E4B70
:102E00001B689F4A4FF4E13142F833109A4B1B681C
:102E1000184604F0B1FB984B1B689B01994A134478
:102E20009949184607F048FA934B1868924B1A686C
:102E300013461B019B1A9B00944A99188E4B1B68E2
:102E4000DB008F4A13441A4608F0EEFA8A4B1B68DF
:102E50008A4A012142F823107B68B3F1FF3F20D05A
:102E6000854B1A688A4913469B0013449B000B4408
:102E700000221A60804B1A68854913469B00134450
:102E80009B000B440833834A1A607B4B1A688049C5
:102E900013469B0013449B000B440C337E4A1A607C
:102EA00015E0754B1A687A4913469B0013449B0042
:102EB0000B44043300221A606F4B1A68744913469E
:102EC0009B0013449B000B441033744A1A606A4BF6
:102ED0001B68694A1268724941F82320664B1B68D7
:102EE0009B006F4A13447B6194E0634B03221A609A
:102EF000614B1B68614A52F82330002B41D15E4B75
:102F00001B685F4ADB00134400229A715A4B1B680E
:102F10005B4ADB00134400221A71574B1B68584A66
:102F2000DB00134400225A71534B1B68544A4FF480
:102F3000E13142F83310504B1B68184604F01CFB7B
:102F40004D4B1B689B014F4A13444F49184607F0ED
:102F5000B3F9494B1868484B1A6813461B019B1A72
:102F60009B004A4A9918444B1B68DB00444A1344AF
:102F70001A4608F059FA404B1B68404A012142F8B2
:102F800023107B68B3F1FF3F20D03B4B1A684049C8
:102F900013469B0013449B000B4400221A60364BDF
:102FA0001A683B4913469B0013449B000B440833AB
:102FB0003C4A1A60304B1A68354913469B0013444B
:102FC0009B000B440C33384A1A6015E02A4B1A68F0
:102FD0002F4913469B0013449B000B4404330022EB
:102FE0001A60254B1A682A4913469B0013449B001C
:102FF0000B4410332D4A1A601F4B1B681E4A12687F
:10300000274941F823201C4B1B689B00244A13448A
:103010007B6100BF7B68B3F1FF3F28D0164B1A6875
:1030200013461B019B1A9B002833184A1344181D92
:10303000114B1B681A461E4907F07CF90E4B1868A5
:103040000D4B1A68124913469B0013449B000B4416
:1030500008331C68084B1A680D4913469B0013443B
:103060009B000B441B681A46214600F0DFF87B6981
:1030700018461C37BD4690BDEC140020F01400200B
:103080000C1400202411002000000020A4120020B5
:1030900044140020101100201011002024110020E1
:1030A000D414002010110020101100202411002041
:1030B000D932000080B483B000AF7860396000235B
:1030C00018460C37BD465DF8047B704780B483B06A
:1030D00000AF7860084611461A460346FB700B465F
:1030E000BB7013467B70002318460C37BD465DF855
:1030F000047B704780B586B000AFF860B9607A6035
:10310000FB683B613B69002B33D03B691B681F4A5E
:10311000D35C012B2DD13B691B681D4A52F823302B
:10312000012B0FD13B691A681A4913469B001344BF
:103130009B000B4408331B687A681946B868FFF790
:1031400053F80EE03B691A68124913469B0013447A
:103150009B000B440C331B687A681946B868FFF76C
:1031600043F83B691B68094A0021D1540023FB75D1
:1031700006E07A680021B86809F0C2F92023FB75DF
:10318000FB7D18461837BD4680BD00BF3C140020AB
:10319000BC1400204414002080B586B000AFF86055
:1031A000B9607A60FB683B613B69002B2AD03B69C0
:1031B0001B680021184608F079FA0346082B21D035
:1031C0003B691A68134913469B0013449B000B4448
:1031D00010331B687A68B9681846FFF705F83B6931
:1031E00018683B691A680B4913469B0013449B00FF
:1031F0000B4410331B687A68194608F033FA03460B
:10320000FB7501E02023FB75FB7D18461837BD4692
:1032100080BD00BF4414002080B483B000AF78604C
:1032200000BF0C37BD465DF8047B704780B588B0A1
:1032300000AFF860B9607A60FB68052B06D9214BB6
:10324000214A40F28911214808F01AFE204AFB6801
:1032500052F82330FB61FB6993F82C301B09DBB279
:103260001A461C4B53F82230BB61FB6993F82C3093
:1032700003F00F037B61FB695B78DBB2002B01D0AD
:1032800009231AE0FB6901225A70BB681A46796962
:10329000B869FFF7EBFB7A687969B86906F054FF03
:1032A00001227969B869FFF705FC7B69DBB201226D
:1032B0001946B86906F043FE002318462037BD467C
:1032C00080BD00BF64E90000D8EA000084E9000086
:1032D0000C480020BCF2000080B582B000AF7860DE
:1032E0000B46FB707B68184600F004F800BF0837F7
:1032F000BD4680BD80B586B000AF78607B68052B89
:1033000006D93D4B3D4A40F2AD113D4808F0B8FDAD
:103310003C4A7B6852F823307B617B6993F82C3000
:103320001B09DBB21A46384B53F822303B617B69EC
:1033300093F82C3003F00F03FB600022F968386922
:10334000FFF7B8FBFB68DBB200221946386906F0CC
:10335000F6FD7B69DB78DBB2002B04D07B69103390
:10336000184606F033FA7B6900225A70274A7B68B8
:10337000134401221A70264A7B6852F82330002B2E
:103380001BD124497A6813469B0013449B000B44CD
:103390000C3318681F497A6813469B0013449B003E
:1033A0000B441B681A4601467868FFF73FFF184A2E
:1033B0007B68012142F823101AE016497A68134607
:1033C0009B0013449B000B440833186811497A682A
:1033D00013469B0013449B000B441B681A4601468E
:1033E0007868FFF723FF0A4A7B68002142F8231020
:1033F00000BF1837BD4680BD64E9000030EB000017
:1034000084E900000C480020BCF200003C140020BD
:10341000BC1400204414002080B590B000AF786048
:103420000B46FB70FB78002B27D107F12403002209
:103430001A605A609A60DA601A615A612D4A7B6894
:1034400052F833307B62012387F82830012387F854
:1034500029304FF0FF333B6307F12403184607F090
:10346000EDF9244A7B68DB00134401221A717B6862
:10347000DB00204A1344FB6336E0FB78012B31D19B
:1034800007F10C0300221A605A609A60DA601A6130
:103490005A61184A7B6852F83330FB6001233B7550
:1034A0004FF0FF33BB6107F10C03184607F036FA03
:1034B000104A7B68DB00134402221A717B68292BB7
:1034C0000AD97B682C2B07D80A4A7B6852F833301C
:1034D0000121184607F05AFA7B68DB00054A1344BD
:1034E000FB6301E00023FB63FB6B18464037BD46DE
:1034F00080BD00BF0400002080B586B000AF7860BA
:103500007B683B613B69002B0BD03B691B79012B2E
:1035100007D13B691B68184607F046FA0346FB755E
:1035200001E00023FB753B691B681B0ADBB2FB60F3
:103530003B691B68DBB2BB60FB68022B02D1BB6836
:10354000062B05D0FB68002B09D1BB68042B06D1E4
:10355000FB7D002B0CBF01230023DBB2FB75FB7D41
:1035600018461837BD4680BD80B586B000AF78607C
:103570000B46FB707B687B617B69002B2FD07B69DE
:103580001B79022B2BD17B691B681B0ADBB23B61C9
:103590007B691B68DBB2FB603B69012B05D1FB68D3
:1035A000162B08D0FB68152B05D03B69042B0FD1D7
:1035B000FB681A2B0CD17B691A68FB78012B14BFAE
:1035C00001230023DBB21946104607F0DFF906E0BD
:1035D0007B691B68FA781146184607F0D7F900BFD7
:1035E0001837BD4680BD80B485B000AF78607B6879
:1035F000FB60FB68002B0ED0FB681B79022B03D10C
:10360000FB6800221A7106E0FB681B79012B02D1CE
:10361000FB6800221A7100BF1437BD465DF8047BB9
:10362000704780B400AFFEE780B483B000AF78602D
:103630007B68013B032B0BD801A252F823F000BF9B
:10364000513600005136000051360000513600005E
:1036500000BFFEE7704770470020002104460D467A
:10366000084808F02BFC08F073FC2046294604F0BB
:1036700037FC0548002104F067FD04F0C1FC08F0A8
:1036800029FC0000F5BE000094EB000080B584B07A
:1036900000AFF860B9601346FB71BB681F2B05D9FA
:1036A0000D4B0E4AFF210E4808F0EAFBFB68BA6892
:1036B00053F8223023F0807323F4E063FA79120286
:1036C00002F4E06243EA0201FB68BA6843F82210A0
:1036D00000BF1037BD4680BDECE90000BCEB000028
:1036E000F8E9000080B483B000AF78600B46FB704F
:1036F0007B68FA781A7000BF0C37BD465DF8047B12
:103700007047000080B584B000AF3B4600221A60CD
:103710005A609A60DA60064B3B6002237B723B463C
:103720001946002006F062F900BF1037BD4680BD83
:1037300080F0FA0280B584B000AF074A3B1D07CA8B
:1037400083E807003B1D1946002006F09DF900BFE5
:103750001037BD4680BD00BF30EA000080B500AF25
:103760002A210848FFF7BEFF002212210648FFF772
:103770008DFFFFF7C7FFFFF7DDFF044806F0D8F91C
:1037800000BF80BD00E0074000900440A4EB0000B3
:1037900080B582B000AF7860034800F0CBFF00BF77
:1037A0000837BD4680BD00BF0044002098B500AF7B
:1037B000094B0A4A1A600A4B0A4A1C1D13460FCBD2
:1037C00084E80F0001F00CF80246054B1A60064B26
:1037D000034A1A6000BF98BD00440020084400203E
:1037E000E043002094EB0000F843002080B586B051
:1037F00002AF87ED010A38600223FB60FFF7D6FFB6
:10380000164800F087FF0346BB60154800F082FFB2
:103810000346BB60002300930023FA681149124855
:1038200000F0B5FF0346BB600023104A0121104899
:1038300000F0EEFF0346BB60D7ED017A9FED0D7AF5
:1038400067EE877AFCEEE77A17EE901A084801F0E7
:1038500006F800BF1037BD4680BD00BF0044002001
:10386000F8430020313C000008440020913700005C
:10387000BC43002000007A4480B586B000AF786079
:103880007B6800221A727B6801225A604FF0FF3376
:103890007B610023FB6007F10C000A237A69002199
:1038A000FFF732F902467B681A617B681B694FF4A7
:1038B000E1311846FFF7FEFB0123FB740023BB74C4
:1038C0007B681869FB7CBA7C0821FFF7FFFB7B68EB
:1038D00001221A7200BF1837BD4680BD80B582B084
:1038E00000AF78607B685B68012B0DD17B681B7A29
:1038F000002B09D07B681B691846FEF797FE7B6892
:103900001B691846FEF79CFE00BF0837BD4680BD08
:1039100080B582B000AF78607868FFF7DFFF00BF46
:103920000837BD4680BD80B582B000AF78607B6847
:103930001B78002B05D17B6801221A707868FFF78D
:10394000E7FF00BF0837BD4680BD80B582B000AF3D
:1039500078607B685B68012B08D17B681B7A002B41
:1039600004D07B681B691846FFF756FC00BF083778
:10397000BD4680BD80B582B000AF78607868FFF743
:10398000E4FF00BF0837BD4680BD80B582B000AF00
:1039900078607B681B78002B05D17B6801221A7048
:1039A0007868FFF7E7FF00BF0837BD4680BD00001D
:1039B00090B583B000AF3D4B012283F890203B4B84
:1039C0000022C3F89420394A4FF00003384CC2E972
:1039D0002A34364B002283F89020364BD3E90A3440
:1039E000324AC2E92A34344B7B60304B002283F8E0
:1039F00098202E4B0122C3F894201020FEF74EFD94
:103A000002467B681A610023FB70284BD3F8A03074
:103A1000F97800221846FEF795FD244B012283F821
:103A20009820224B012283F8B020204B0022C3F8BB
:103A3000B4201E4A4FF000031D4CC2E932341B4B28
:103A4000002283F8B0201B4BD3E90834174AC2E99F
:103A500032341A4B7B60154B002283F8B820134B8D
:103A60000122C3F8B4201120FEF718FD02467B683E
:103A70001A610023FB700D4BD3F8C030F978002297
:103A80001846FEF75FFD094B012283F8B820074B6B
:103A90000022C3F8C421054B002283F8C021084846
:103AA000FFF7EAFE00BF0C37BD4690BD7045002011
:103AB0000000F0BF800600200046002020460020C5
:103AC0003047002090B58DB000AF484BD3E92A01B4
:103AD000474BD3E90A341A462346FDF705FA034655
:103AE000002B05D1424BD3E90A34404AC2E92A34BB
:103AF0003E4BD3F8A0301846FEF78EFD3B4BD3F873
:103B0000A03007223B491846FEF72AFD0822394912
:103B10003948FEF769FB354BD3E93201344BD3E921
:103B200008341A462346FDF7DFF90346002B05D17A
:103B30002F4BD3E908342D4AC2E932342B4BD3F84A
:103B4000C0301846FEF768FD284BD3F8C030072276
:103B50002A491846FEF704FD082228492848FEF79E
:103B600043FB0023BB621AE0264ABB6A134403F5F9
:103B70009A7319783A46BB6A13440A461A70BB6AAC
:103B800008332049BA6A0A4402F59E72127807F196
:103B900030010B4403F8302CBB6A0133BB62BB6AB3
:103BA000072BE1DD124B93F83E303B74012387F87D
:103BB0002F3012E0394607F1140311221846FEF7A0
:103BC00013FB0A4BD3F8D03107F114011122184628
:103BD000FFF7E2FA034687F82F3097F82F30002BD3
:103BE000E8D100BF3437BD4690BD00BF704500200E
:103BF00080060020B844002054450020C044002026
:103C00005C4500202044002080B500AF0548FFF748
:103C10008AFE0548FFF787FE0448FFF7B6FE00BF9F
:103C200080BD00BF00460020204600203047002015
:103C300080B586B000AF7861184B1B681B68002BFD
:103C40000CBF01230023DBB21A46154B1A7011E09A
:103C50003B461449184600F080FD02F041FB0F4B33
:103C60001B681B68002B14BF01230023DBB21A461C
:103C70000D4B1A700A4B1B78DBB2002BE8D1084BB6
:103C800000221A70786900F011F8002000F0AFFDF2
:103C9000002318461837BD4680BD00BF0CEC00005D
:103CA0000200002000440020F443002080B582B0D0
:103CB00000AF7860074B01221A60074B00221A7090
:103CC00003F0B2FB054800F035FD00231846083725
:103CD000BD4680BD1C44002002000020F8430020A7
:103CE00080B586B000AF7861396103F091FE00F0D5
:103CF000BCF80A4B1B6800221A6003F015F900207B
:103D00009FED070AFFF772FD3B460649184600F093
:103D100024FD002318461837BD4680BD0CEC00007A
:103D20006F12833AF843002080B500AF002006F000
:103D30003DFB00BF80BD80B500AF012006F036FB23
:103D400000BF80BD80B500AF022006F02FFB00BF92
:103D500080BD80B500AF032006F028FB00BF80BD0A
:103D600080B500AF042006F021FB00BF80BD80B508
:103D700000AF052006F01AFB00BF80BD80B500AF84
:103D8000062006F013FB00BF80BD80B500AF072002
:103D900006F00CFB00BF80BD80B500AF082006F028
:103DA00005FB00BF80BD80B500AF092006F0FEFA1C
:103DB00000BF80BD80B500AF0A2006F0F7FA00BF53
:103DC00080BD80B500AF0B2006F0F0FA00BF80BDCB
:103DD00080B500AF0C2006F0E9FA00BF80BD80B5C9
:103DE00000AF0D2006F0E2FA00BF80BD80B500AF45
:103DF0000E2006F0DBFA00BF80BD80B500AF0F20BB
:103E000006F0D4FA00BF80BD80B500AF002006F0F8
:103E1000E5FA00BF80BD80B500AF002007F0EEF9E5
:103E200000BF80BD80B500AF012007F0E7F900BFFB
:103E300080BD80B500AF022007F0E0F900BF80BD73
:103E400080B500AF032007F0D9F900BF80BD80B571
:103E500000AF042007F0D2F900BF80BD80B500AFED
:103E6000052007F0CBF900BF80BD80B582B000AF60
:103E700005F0FAFC0023FB7106E0FB79184605F01B
:103E8000DFFEFB790133FB71FB79042BF5D9FFF7DA
:103E900065FC00BF0837BD4680BD80B582B000AF6D
:103EA000786005F09DFE034618460837BD4680BD84
:103EB00080B483B000AF78607B68023303F1047391
:103EC0005B011C3301221A7000BF0C37BD465DF840
:103ED000047B704780B483B000AF78607B680233A6
:103EE00003F104735B010C3300221A7000BF0C371E
:103EF000BD465DF8047B704780B483B000AF786046
:103F00007B68023303F104735B010C3301221A70E6
:103F100000BF0C37BD465DF8047B704780B483B0AA
:103F200000AF78600B46FB707B68023303F10473CB
:103F30005B0110331A46FB78137000BF0C37BD4687
:103F40005DF8047B704780B483B000AF78607B6815
:103F50001B79DBB218460C37BD465DF8047B704711
:103F600080B483B000AF78600B46FB707B68FA7852
:103F70001A7100BF0C37BD465DF8047B704780B4F2
:103F800083B000AF78600B46FB707B68DB78DBB2F8
:103F90001A46FB7842FA03F303F00103002B14BF27
:103FA00001230023DBB218460C37BD465DF8047BC5
:103FB000704780B483B000AF78607B68023303F150
:103FC00004735B0114331B78DBB2002B14BF012395
:103FD0000023DBB218460C37BD465DF8047B704702
:103FE00080B483B000AF78600B46FB707B6802330F
:103FF00003F104735B011833FA781A7000BF0C37B1
:10400000BD465DF8047B704780B483B000AF786034
:104010007B680222DA7000BF0C37BD465DF8047B76
:104020007047000080B584B000AFF860B9601346F7
:10403000FB71BB681F2B05D90A4B0B4AD9210B48D2
:1040400007F01EFFBB689B00FA68134403F104737A
:104050005B0114331A46FB79136000BF1037BD466D
:1040600080BD00BF3CEA0000F0EB000048EA000021
:1040700080B584B000AFF860B9601346FB71BB68CF
:104080001F2B05D90D4B0E4AFF210E4807F0F8FEF5
:10409000FB68BA6853F8223023F0807323F4E0639E
:1040A000FA79120202F4E06243EA0201FB68BA689C
:1040B00043F8221000BF1037BD4680BD3CEA000027
:1040C000DCEB000048EA000080B584B000AF786007
:1040D0007B681B680F4A52F82330FB607B681B68C3
:1040E000184600F0EDF97B681B68184605F0F0FDF6
:1040F000F86806F077FCF868FFF7DAFE0121F86847
:10410000FFF76EFF0449786800F0FAF800BF103737
:10411000BD4680BDD0EB0000A086010080B584B014
:1041200000AF78607B681B68054A52F82330FB605B
:10413000F86806F09DFC002318461037BD4680BD88
:10414000D0EB000080B584B000AF78600023BB6086
:104150007B681B680D4A52F82330FB60F868FFF754
:1041600028FF0346002B02D0F86806F08FFC0023DE
:10417000BB6003E000BFBB680133BB60BB68C72BFB
:10418000F8D9002318461037BD4680BDD0EB00009B
:1041900080B586B000AF78600B46FB70104B3B617A
:1041A0007B681B680F4A52F82330FB6000237B6159
:1041B0000CE0FB781946F868FFF7E1FE0346002B98
:1041C00001D0002307E07B6901337B617A693B6999
:1041D0009A42EED3012318461837BD4680BD00BF72
:1041E000A0860100D0EB000080B584B000AF7860FD
:1041F0007B681B68104A52F82330FB600121786805
:10420000FFF7C6FF0346002B01D0022310E0F86839
:10421000FFF7FAFE07217868FFF7BAFF0346002B85
:1042200001D0022304E00021F868FFF7A8FE03464E
:1042300018461037BD4680BDD0EB000080B584B075
:1042400000AF78607B681B680A4A52F82330FB6035
:1042500001217868FFF79CFF0346002B01D0012362
:1042600003E0F868FFF7D0FE002318461037BD467C
:1042700080BD00BFD0EB000080B584B000AF786097
:1042800039607B681B68094A52F82330FB603B6841
:10429000DBB21946F868FFF763FE7868FFF7A4FF02
:1042A000034618461037BD4680BD00BFD0EB000066
:1042B00080B586B000AFF860B9607A60FB681B68B3
:1042C0000E4A52F823307B617B68002B03D078695B
:1042D000FFF712FE02E07869FFF7FCFD7869FFF74F
:1042E00032FE03461A46BB681A70F868FFF7A6FF4D
:1042F000034618461837BD4680BD00BFD0EB00000E
:1043000080B584B000AF786039607B681B680E4A66
:1043100052F82330FB607B681B681846FFF7BDFD31
:104320000346BB603B68094A82FB03129211DB170C
:10433000D31A1A460023B968F86806F061FB00BF7B
:104340001037BD4680BD00BFD0EB0000D34D6210DA
:1043500090B589B000AFF860B9607A603B60F868EA
:10436000FFF7DCFE0346002B05D0F868FFF7EAFEF6
:104370006FF0010355E0BB6843F001031946F8688C
:10438000FFF77AFF0346002B05D0F868FFF7DAFE47
:104390004FF0FF3345E0FB681B68244A52F8233096
:1043A000BB610021B869FFF7B9FD0023FB6124E080
:1043B000FB69002B02D107F1120303E0FB69013B0B
:1043C0007A6813447B613B68013BFA699A420CBFEF
:1043D00001230023DBB2FB74FB7C1A467969F86881
:1043E000FFF766FF0346002B04D0F868FFF7AAFE2C
:1043F000FB6916E0FB690133FB61FA693B689A428D
:10440000D6DB3B6B002B02D0F868FFF79BFEFB6905
:10441000013B7A68D418B869FFF795FD034623700D
:104420003B6818462437BD4690BD00BFD0EB000066
:1044300080B586B000AFF860B9607A603B60F8681C
:10444000FFF76CFE0346002B05D0F868FFF77AFEF5
:104450006FF0010330E0BB6803F0FE031946F86813
:10446000FFF70AFF0346002B05D0F868FFF76AFE46
:104470004FF0FF3320E000237B6112E07B697A6814
:1044800013441B781946F868FFF7F6FE0346002B25
:1044900004D0F868FFF756FE7B690DE07B690133B5
:1044A0007B617A693B689A42E8DB3B6A002B02D069
:1044B000F868FFF747FE3B6818461837BD4680BDD1
:1044C00080B582B000AF78607B68002B02D0012BF2
:1044D00015D029E0052218211548FFF7C9FD012252
:1044E00018211348FFF79EFD052219211048FFF7F8
:1044F000BFFD012219210E48FFF794FD14E00222AE
:104500000A210C48FFF7B4FD01220A210948FFF7F0
:1045100089FD02220B210748FFF7AAFD01220B218A
:104520000448FFF77FFD00BF00BF0837BD4680BDD0
:1045300000D0044000B0044080B400AFFEE780B477
:1045400000AFFEE780B400AFFEE780B400AFFEE747
:1045500080B400AFFEE780B400AFFEE780B400AFE8
:10456000FEE780B400AFFEE780B400AFFEE780B4A2
:1045700000AFFEE780B400AFFEE780B400AFFEE717
:1045800080B400AFFEE780B400AFFEE780B400AFB8
:10459000FEE780B400AFFEE780B400AFFEE780B472
:1045A00000AFFEE780B400AFFEE780B400AFFEE7E7
:1045B00080B400AFFEE780B400AFFEE780B400AF88
:1045C000FEE780B400AFFEE780B400AFFEE780B442
:1045D00000AFFEE780B400AFFEE780B400AFFEE7B7
:1045E00080B400AFFEE780B400AFFEE780B400AF58
:1045F000FEE780B400AFFEE780B400AFFEE780B412
:1046000000AFFEE780B400AFFEE780B400AFFEE786
:1046100080B400AFFEE780B400AFFEE780B400AF27
:10462000FEE780B400AFFEE780B400AFFEE780B4E1
:1046300000AFFEE780B400AFFEE780B400AFFEE756
:1046400080B400AFFEE780B400AFFEE780B400AFF7
:10465000FEE780B400AFFEE780B400AFFEE780B4B1
:1046600000AFFEE780B400AFFEE780B400AFFEE726
:1046700080B400AFFEE780B400AFFEE780B400AFC7
:10468000FEE780B400AFFEE780B400AFFEE780B481
:1046900000AFFEE780B400AFFEE780B400AFFEE7F6
:1046A00084B080B582B000AF07F1100C8CE80F0029
:1046B0003B69796A184603F099FF03467B607B6883
:1046C00018460837BD46BDE8804004B0704784B046
:1046D00080B500AF07F1080C8CE80F00BB68F969E2
:1046E000184603F0A3FF03461846BD46BDE88040C8
:1046F00004B0704780B582B000AF786039607B68E5
:104700004FF0FF323968184603F09EFF786808378B
:10471000BD4680BD80B485B000AF78607B68012263
:104720005A600123FB60FB6818461437BD465DF8EC
:10473000047B704780B584B002AF78607B681B68EB
:104740007A68526801921A6900920FCBFFF7A8FFAE
:10475000034618460837BD4680BD80B584B002AF19
:10476000786039603B681B683A68526801921A6940
:1047700000920FCBFFF7ABFF3B685A687B6811468E
:104780001846FFF7B7FF78680837BD4680BD80B58B
:1047900086B000AFF860B9607A603B60FB68BA68C9
:1047A0005A60FB687A689A60FB680122DA603A68AE
:1047B000FB681A61FB680433396A184603F0C4FCCD
:1047C0000246FB681A60FB681B68002B14BF0123BC
:1047D0000023DBB27B617B6918461837BD4680BD7C
:1047E00080B500AF03F0FEFC0346184680BD80B5DF
:1047F00084B000AF786003F0F5FC0346FB60F86816
:1048000003F0FCFC0346BB6000BF1037BD4680BD13
:1048100080B586B000AFF8607A603B600B46FB72F3
:10482000FB6803F10C02FB689A60FB687A685A60C7
:10483000FB680433F97A3A68184603F0D3FD024660
:10484000FB681A60FB681B68002B14BF0123002360
:10485000DBB27B617B6918461837BD4680BD80B5E9
:1048600084B000AF786039607B681B68396818468F
:1048700003F0EAFD0346FB60FB6818461037BD46AF
:1048800080BD000080B582B000AF78607B681A7888
:10489000414B83F80E22404B93F80E32002B76D119
:1048A0007B685A783D4B83F844217B6802330222AF
:1048B00019463B48FDF798FC7B68043304221946EF
:1048C0003848FDF791FC7B680833042219463648C6
:1048D000FDF78AFC7B680C33082219463348FDF744
:1048E00083FC7B681433082219463148FDF77CFCB1
:1048F0007B682033082219462E48FDF775FC7B683B
:104900002833022219462C48FDF76EFC7B682C33B5
:10491000022219462948FDF767FC7B682E330222E4
:1049200019462748FDF760FC7B68303302221946A0
:104930002448FDF759FC7B6832330222194622488D
:10494000FDF752FC7B683433022219461F48FDF7FD
:104950004BFC7B6893F82A20104B83F846217B6838
:1049600093F82B200D4B83F847217B681C330222E0
:1049700019461748FDF738FC7B681E33022219469A
:104980001448FDF731FC054B012283F8452100BF97
:104990000837BD4680BD00BF704500202044002080
:1049A000424500201045002014450020C844002046
:1049B000D0440020D8440020484500204A4500202B
:1049C0004C4500204E450020504500205245002017
:1049D000444500204645002098B500AF864BB3F90A
:1049E00022311846FBF7AEFF03460C461A46234613
:1049F0007FA1D1E90001FCF739F903460C4644ECEC
:104A0000173BB0EE470AF0EE670A03F03DF9B0EE4F
:104A1000407AF0EE607A784B83ED367B764BD3E9C3
:104A200036014FF00002754BFCF768FA0346002B85
:104A30001DD0714BD3E936014FF00002704BFCF7EB
:104A400071FA0346002B0CD06B4BD3E93634184671
:104A50002146FCF77BFA03461AB26A4BA3F80822F8
:104A60000AE0684B4FF40042A3F8082204E0654BCB
:104A700047F6FF72A3F808225F4B93F84431002BEE
:104A800018D05D4B93F84431022B13D05A4B93F856
:104A900044310A2B0ED0584B93F844310C2B09D0DB
:104AA000554B93F84431042B04D0534B93F84431C5
:104AB0000E2B0CD1504BD3E92A34524AC2E976343A
:104AC0004D4BD3F8F0304C4AC2F8EC300BE04A4B77
:104AD000D3E92C344B4AC2E97634474BD3F8F4304F
:104AE000454AC2F8EC30444B93F84431022B0ED0C7
:104AF000414B93F84431032B09D03F4B93F8443199
:104B00000C2B04D03C4B93F844310D2B4BD13D4B37
:104B1000B3F908321846FBF715FF374BD3E92E34AB
:104B20001A462346FBF778FF03460C4644EC173B36
:104B3000B0EE470AF0EE670A03F0A6F8B0EE407A4E
:104B4000F0EE607A2C4B83ED367B2B4BD3E93601AC
:104B50004FF00002294BFCF7D1F90346002B1DD082
:104B6000254BD3E936014FF00002254BFCF7DAF96B
:104B70000346002B0CD0204BD3E93634184621468F
:104B8000FCF7E4F903461AB21E4BA3F808220AE028
:104B90001C4B4FF40042A3F8082204E0194B47F6DF
:104BA000FF72A3F80822174B012283F80A22154A44
:104BB0004FF000034FF00004C2E97834114A4FF07F
:104BC00000034FF00004C2E97A340E4A4FF00003AC
:104BD0004FF00004C2E97C340A4A4FF000034FF062
:104BE0000004C2E97E3400BF98BD00BFAFF300806F
:104BF00000000000004CED40204400200000E04098
:104C00000000E0C07045002080B400AF1A4B0122C4
:104C1000A3F81421184B0122A3F81E21164B0022E1
:104C2000A3F81C21144B0122A3F81821124B0022D7
:104C3000A3F81221104B0022A3F816210E4B0022DC
:104C4000A3F81A210C4B0022A3F820210A4B93F859
:104C50004431042B04D0084B93F844310E2B05D17A
:104C6000054BD3F8F430044AC2F8EC3000BFBD461F
:104C70005DF8047B704700BF2044002090B585B0EC
:104C800000AF00237B72AE4B0122A3F81421AC4B82
:104C90000122A3F81621AA4B0022A3F81221A84B47
:104CA0000122A3F81821A64B0022A3F81C21A44B33
:104CB0000022A3F81E21A24B0022A3F81A21A04B28
:104CC0000022A3F820219F4BD3F800329C4AB2F96E
:104CD0002421934212D39A4B93F84431022B04D0EF
:104CE000974B93F844310C2B08D1964B032283F851
:104CF0000B22944B0022C3F800221CE1914BB3F924
:104D000008321846FBF71EFE8E4BD3E976341A465E
:104D10002346FBF7C9FC03460C4644EC173BB0EEB8
:104D2000470AF0EE670A02F0AFFFB0EE407AF0EE0D
:104D3000607A87ED007B4FF00002834BD7E90001DA
:104D4000FCF7DCF80346002B14D04FF000027F4B39
:104D5000D7E90001FCF7E6F80346002B06D0D7E9B7
:104D60000001FCF7F3F803467B8106E04FF40043B3
:104D70007B8102E047F6FF737B8100237B72704BDF
:104D800093F84431002B04D06D4B93F844310A2B37
:104D900009D16C4BD3F80022B7F90A309A4202D3FA
:104DA00001237B72B0E0674BB3F908321846FBF77A
:104DB000C9FD634BD3E92A341A462346FBF774FC3A
:104DC00003460C4644EC173BB0EE470AF0EE670A88
:104DD00002F05AFFB0EE407AF0EE607A87ED007B89
:104DE0004FF00002584BD7E90001FCF787F8034663
:104DF000002B14D04FF00002544BD7E90001FCF710
:104E000091F80346002B06D0D7E90001FCF79EF885
:104E100003467B8106E04FF400437B8102E047F6C6
:104E2000FF737B81B7F90A301846FBF78BFD444BC3
:104E3000D3E92C341A462346FBF736FC03460C46CE
:104E400044EC173BB0EE470AF0EE670A02F01CFF95
:104E5000B0EE407AF0EE607A87ED007B4FF0000212
:104E6000394BD7E90001FCF749F80346002B14D071
:104E70004FF00002354BD7E90001FCF753F8034629
:104E8000002B06D0D7E90001FCF760F803467B81D0
:104E900006E04FF400437B8102E047F6FF737B811D
:104EA000B7F90A30264AB2F928219B1AFB60FB6841
:104EB000B3F5004F03DB47F6FF73FB6005E0FB68CB
:104EC00013F5004F01DA224BFB601D4B93F8443180
:104ED000042B04D01A4B93F844310E2B09D1194BF3
:104EE000D3F80032FA6812B2934202D301237B72E4
:104EF0000AE0134B93F84531002B05D0114B0422E7
:104F000083F80B22FFF768FD7B7A002B13D00D4B43
:104F1000022283F80B220B4B0022C3F80022084B1D
:104F20000022A3F81421064B0022A3F81621044BFB
:104F30000122A3F8122100BF1437BD4690BD00BF67
:104F400020440020704500200000E0400000E0C048
:104F50000080FFFF000000002DE9B04386B000AFE5
:104F60007860C14B93F90A32013B032B00F2908029
:104F700001A252F823F000BF894F0000CB4F000080
:104F80000D5000004F5000007B6893ED007BB0EEA9
:104F9000470AF0EE670A06F0D7FE55EC104B7B6827
:104FA000083393ED007BB0EE470AF0EE670A06F097
:104FB000CBFE53EC102B20462946FBF777FB03462C
:104FC0000C46A94AC2E9783462E07B6893ED007B25
:104FD000B0EE470AF0EE670A06F0B6FE55EC104B4D
:104FE0007B68083393ED007BB0EE470AF0EE670A6A
:104FF00006F0AAFE53EC102B20462946FBF756FB81
:1050000003460C46984AC2E97A3441E07B6893ED46
:10501000007BB0EE470AF0EE670A06F095FE55EC0D
:10502000104B7B68083393ED007BB0EE470AF0EE3F
:10503000670A06F089FE53EC102B20462946FBF741
:1050400035FB03460C46884AC2E97C3420E07B6885
:1050500093ED007BB0EE470AF0EE670A06F074FEAF
:1050600055EC104B7B68083393ED007BB0EE470A9C
:10507000F0EE670A06F068FE53EC102B2046294636
:10508000FBF714FB03460C46774AC2E97E3400BFA7
:10509000754B93F90A32032B04DD734B012283F81D
:1050A0000A220EE0704B93F90A320133BB60BB68F1
:1050B0007F2B01DD7F23BB60BB685AB26A4B83F84C
:1050C0000A22694BD3E97801674BD3E97A341A464F
:1050D0002346FBF7EBFA03460C4618462146624B83
:1050E000D3E97C341A462346FBF7E0FA03460C4624
:1050F000184621465C4BD3E97E341A462346FBF71B
:10510000D5FA03460C46184621464FF00002574B8D
:10511000FBF7ACFD03460C461846214650A3D3E9E5
:105120000023FBF7C1FA03460C46184621464FF010
:1051300000024F4BFBF770FC03460C464D4AC2E998
:1051400032344C4BD3E932454A4BB3F92C31184633
:10515000FBF7F8FB02460B4620462946FBF7ECFE20
:105160000346002B00F09E84424BD3E93245414B6D
:10517000B3F92C311846FBF7E5FB02460B462046F7
:105180002946FBF791FA03460C4644EC173BB0EE78
:10519000470AF0EE670A02F077FDB0EE407AF0EED3
:1051A000607A344B83ED327B324BB3F92A311A46A5
:1051B000304BB3F92231D31ABB602E4ABB68C2F818
:1051C000FC30BB68B3F5004F05DB2A4B47F6FF7296
:1051D000C3F8FC2007E0BB6813F5004F03DA254B4A
:1051E000254AC3F8FC20234BD3E932014FF00002DB
:1051F000224BFBF783FE0346002B18D01D4BD3E94F
:1052000032014FF000021E4BFBF78CFE0346002BD1
:1052100009D0184BD3E9323418462146FBF796FEE5
:105220000346FB8206E04FF40043FB8202E047F6B0
:10523000FF73FB820F4BD3F8FC30B7F9162002FB4B
:1052400003F30C4AC2F8FC300A4BD3F8FC30B3F538
:10525000004F17DB074B47F6FF72C3F8FC201BE03B
:105260009A9999999999B93F70450020000010408A
:1052700000003440204400200080FFFF0000E04098
:105280000000E0C0AF4BD3F8FC3013F5004F03DA59
:10529000AC4BAD4AC3F8FC20AA4BB3F93031B3F59F
:1052A000804F03DB47F6FF73FB820EE0A54BB3F99B
:1052B000303113F5804F03DC4FF40043FB8204E0F0
:1052C000A04BB3F930315B00FB82B7F91630C3F164
:1052D00028039C4AC2F804319A4BD3F80431B3F541
:1052E000004F04DB974B47F6FF72C3F80421954B40
:1052F000D3F804311BB2002B05D0012B1AD0B3F127
:10530000FF3F1CD033E08F4BD3F8FC301BB2002B97
:1053100002D10023FB8295E08A4BD3F8FC301BB20C
:10532000002B03DA4FF40043FB828BE047F6FF7358
:10533000FB8287E0834BD3F8FC30FB8282E0814B19
:10534000D3F8FC301BB25B427E4AC2F8FC307D4B86
:10535000D3F8FC30B3F5004F04DB7A4B47F6FF720D
:10536000C3F8FC20774BD3F8FC30FB826AE0754B26
:10537000D3F8FC301BB2002B04DB724BD3F8FC30AB
:105380007B8210E06F4BD3F8FC301BB213F5004F5B
:1053900003D14FF400437B8205E06A4BD3F8FC3025
:1053A0009BB25B427B82674BD3F804311BB2002B6C
:1053B00004DB644BD3F804313B8205E0614BD3F846
:1053C00004319BB25B423B823B8A002B05D07A8A38
:1053D0003B8AB2FBF3F39BB201E04FF6FF73FB8114
:1053E000FA893B8A12FB03F39BB27A8AD31A7B8237
:1053F0007B8A002B0DD07A8A3B8A5B089BB21946C8
:105400003B8A03F001030B449A4202DBFB89013320
:10541000FB81FB89FB824B4BD3F8FC301BB29BB268
:10542000DB0BDAB2474BD3F804311BB29BB2DB0B78
:10543000DBB25340DBB2002B03D0FB895B429BB253
:10544000FB8200BF3F4BB3F922311A46B7F9163041
:1054500013443C4AC2F8FC303A4BD3F8FC30B3F565
:10546000004F05DB374B47F6FF72C3F8FC2009E01D
:10547000344BD3F8FC3013F5004F03DA314B324A8A
:10548000C3F8FC202F4BB3F92E311A464FF47A7330
:1054900003FB02F32B4AC2F804312A4BD3F8043140
:1054A000B3F5004F05DB274B47F6FF72C3F8042125
:1054B00009E0244BD3F8043113F5004F03DA214BF4
:1054C000214AC3F804211F4BD3F8FC301BB21A4603
:1054D0001C4BB3F92231D31A1A4AC2F8FC30194BCB
:1054E000D3F8FC30174AC2F80031164BD3F8FC3021
:1054F000B3F5004F05DB134B47F6FF72C3F80021ED
:1055000009E0104BD3F8FC3013F5004F03DA0D4BD4
:105510000D4AC3F800210B4BD3F80431094AD2F8E5
:10552000002102FB03F3074AC2F80431054BD3F80C
:105530000431B3F5004F09DB024B47F6FF72C3F8A5
:1055400004210DE0204400200080FFFF8D4BD3F8A4
:10555000043113F5004F03DA8A4B8B4AC3F8042158
:10556000BB68B3F5004F03DB47F6FF73BB6005E094
:10557000BB6813F5004F01DA834BBB60814BD3F856
:1055800004311846FBF7DEF904460D46B868FBF710
:10559000D9F902460B4620462946FBF767FB03462E
:1055A0000C4644EC173BB0EE470AF0EE670A02F0F7
:1055B0006BFBB0EE407AF0EE607A724B83ED327B9B
:1055C000704BD3E932014FF00002704BFBF796FCB1
:1055D0000346002B18D06B4BD3E932014FF0000289
:1055E0006B4BFBF79FFC0346002B09D0654BD3E9BF
:1055F000323418462146FBF7A9FC0346FB8206E03D
:105600004FF40043FB8202E047F6FF73FB82B7F9D9
:1056100016304FF47A7202FB03F3BB60BB68B3F53C
:10562000004F03DB47F6FF73BB6005E0BB6813F573
:10563000004F01DA544BBB60524BD3F8FC30B3F54A
:10564000004F05DB4F4B47F6FF72C3F8FC2009E023
:105650004C4BD3F8FC3013F5004F03DA494B4A4A60
:10566000C3F8FC20474BD3F8FC304A4AB2F9082271
:1056700002FB03F3434AC2F8FC30424BD3F8FC3040
:10568000B3F5004F05DB3F4B47F6FF72C3F8FC2034
:1056900009E03C4BD3F8FC3013F5004F03DA394BEB
:1056A000394AC3F8FC20BB681BB2002B05D0012B84
:1056B0001AD0B3F1FF3F1CD02BE0324BD3F8FC30B3
:1056C0001BB2002B02D10023BB8298E02D4BD3F8F4
:1056D000FC301BB2002B03DA4FF40043BB828EE098
:1056E00047F6FF73BB828AE0264BD3F8FC30BB82BF
:1056F00085E0244BD3F8FC301BB25B42BB60BB6837
:10570000B3F5004F02DB47F6FF73BB60BB68BB829B
:1057100075E01C4BD3F8FC301BB2002B04DB194B9B
:10572000D3F8FC307B8210E0164BD3F8FC301BB270
:1057300013F5004F03D14FF400437B8205E0114B7A
:10574000D3F8FC309BB25B427B82BB681BB2002B60
:1057500002DBBB683B820CE0BB681BB213F5004F59
:1057600003D14FF400433B8203E0BB689BB25B4232
:105770003B823B8A002B0FD07A8A3B8AB2FBF3F341
:105780009BB20BE0204400200080FFFF0000E040BF
:105790000000E0C0704500204FF6FF73FB81FA89DE
:1057A0003B8A12FB03F39BB27A8AD31A7B827B8AF1
:1057B000002B0DD07A8A3B8A5B089BB219463B8A44
:1057C00003F001030B449A4202DBFB890133FB81A6
:1057D000FB89BB82AE4BD3F8FC301BB29BB2DB0B18
:1057E000DAB2BB681BB29BB2DB0BDBB25340DBB25D
:1057F000002B03D0FB895B429BB2BB8200BFA54B51
:10580000B3F908321846FBF79DF803460C461A46D2
:1058100023469DA1D1E90001FBF728FA03460C4677
:1058200044EC173BB0EE470AF0EE670A02F02CFAA0
:10583000B0EE407AF0EE607A954B83ED327B944B7C
:10584000D3E932014FF00002934BFBF757FB0346BD
:10585000002B18D08E4BD3E932014FF000028F4B52
:10586000FBF760FB0346002B09D0894BD3E93234A8
:1058700018462146FBF76AFB0346FB8206E04FF41D
:105880000043FB8202E047F6FF73FB82B7F9142066
:10589000B7F916301344BB60BB68B3F5004F03DBA8
:1058A00047F6FF73BB6005E0BB6813F5004F01DAF4
:1058B0007B4BBB60B868FBF745F803460C461A46BD
:1058C000234671A1D1E90001FBF7D0F903460C464C
:1058D00044EC173BB0EE470AF0EE670A02F0D4F949
:1058E000B0EE407AF0EE607A694B83ED327B684B24
:1058F000D3E932014FF00002674BFBF7FFFA034692
:10590000002B1DD0624BD3E932014FF00002634BF4
:10591000FBF708FB0346002B0CD05D4BD3E9323478
:1059200018462146FBF712FB03461AB2594BA3F85F
:1059300008220AE0574B4FF40042A3F8082204E083
:10594000544B47F6FF72A3F80822524BB3F90832C2
:105950001846FAF7F7FF03460C461A4623464AA1B3
:10596000D1E90001FBF782F903460C4644EC173BF2
:10597000B0EE470AF0EE670A02F086F9B0EE407A20
:10598000F0EE607A424B83ED327B414BD3E932013A
:105990004FF00002404BFBF7B1FA0346002B18D042
:1059A0003B4BD3E932014FF000023C4BFBF7BAFA14
:1059B0000346002B09D0364BD3E932341846214632
:1059C000FBF7C4FA0346FB8206E04FF40043FB8278
:1059D00002E047F6FF73FB822D4BB3F92A31B7F98A
:1059E00016209A4240F35281294BB3F92A311846C6
:1059F000FAF7A8FF03460C461A46234622A1D1E92E
:105A00000001FBF733F903460C4644EC173BB0EEBC
:105A1000470AF0EE670A02F037F9B0EE407AF0EE8E
:105A2000607A1B4B83ED327B194BD3E932014FF087
:105A30000002194BFBF762FA0346002B1DD0144BF2
:105A4000D3E932014FF00002144BFBF76BFA034627
:105A5000002B0CD00E4BD3E9323418462146FBF70D
:105A600075FA03461AB20B4BA3F808220EE1094B54
:105A70004FF40042A3F8082208E1064B47F6FF72F4
:105A8000A3F8082202E100BF00000000004CED4036
:105A900020440020704500200000E0400000E0C0ED
:105AA0000080FFFF7E4BB3F908321846FAF74AFF31
:105AB00003460C461A46234677A1D1E90001FBF7BD
:105AC000D5F803460C46774AC2E93234754B93ED5C
:105AD000327BB0EE470AF0EE670A02F0D5F8B0EE7E
:105AE000407AF0EE607A6F4B83ED347B6D4BD3E9F7
:105AF00034014FF000026C4BFBF700FA0346002B19
:105B000018D0684BD3E934014FF00002674BFBF724
:105B100009FA0346002B09D0624BD3E93434184606
:105B20002146FBF713FA0346FB8206E04FF40043DD
:105B3000FB8202E047F6FF73FB825A4BB3F9223136
:105B4000B7F916209A4240F3A180564BB3F92A3197
:105B50001A46544BB3F92231D31ABB60BB68B3F574
:105B6000004F03DB47F6FF73BB6005E0BB6813F52E
:105B7000004F01DA4E4BBB604A4BB3F932311A4643
:105B80004FF47A7303FB02F3464AC2F8FC30454BEC
:105B9000D3F8FC30B3F5004F05DB424B47F6FF72FC
:105BA000C3F8FC2009E03F4BD3F8FC3013F5004F5D
:105BB00003DA3C4B3E4AC3F8FC203A4BD3E932456A
:105BC000374BB3F908321A46BB6803FB02F3184699
:105BD000FAF7B8FE80468946324BD3F8FC301846B7
:105BE000FAF7B0FE02460B4640464946FBF73EF840
:105BF00002460B4620462946FAF756FD03460C4658
:105C00001A46234624A1D1E90001FBF72FF80346E9
:105C10000C4644EC173BB0EE470AF0EE670A02F080
:105C200033F8B0EE407AF0EE607A1E4B83ED327BB3
:105C30001C4BD3E932014FF000021B4BFBF75EF91E
:105C40000346002B1DD0174BD3E932014FF0000261
:105C5000164BFBF767F90346002B0CD0114BD3E929
:105C6000323418462146FBF771F903461AB20C4B41
:105C7000A3F808220AE00A4B4FF40042A3F80822D6
:105C800004E0074B47F6FF72A3F8082200BF18375D
:105C9000BD46BDE8B08300BF00000000004CED40F1
:105CA00070450020204400200000E0400000E0C0DB
:105CB0000080FFFF80B400AF1A4B0122A3F814212B
:105CC000184B0122A3F81621164B0022A3F812212B
:105CD000144B0122A3F81821124B0022A3F81C2117
:105CE000104B0022A3F81E210E4B0022A3F81A210C
:105CF0000C4B0022A3F820210A4B93F84431042BCB
:105D000004D0084B93F844310E2B05D1054BD3F842
:105D1000F030044AC2F8EC3000BFBD465DF8047BA9
:105D2000704700BF2044002090B583B000AF78607A
